:100000000C9445000C9462000C9462000C94620005
:100010000C9462000C9462000C9462000C946200D8
:100020000C9462000C9462000C9462000C946200C8
:100030000C9462000C9462000C9462000C946200B8
:100040000C9462000C9462000C9462000C946200A8
:100050000C946200DB0003012B01530170018D0140
:10006000AA01D401FE0138024C0260027402880227
:100070009C02B002C402D802FA020B031C032D0337
:100080003E034F0360037103820311241FBECFE5BB
:10009000D4E0DEBFCDBF12E0A0E6B0E0ECE5F8E0D2
:1000A00002C005900D92A239B107D9F722E0A2E96A
:1000B000B2E001C01D92A43AB207E1F70E94B40376
:1000C0000C942C040C94000087B3806A87BB88E5ED
:1000D0008DB908958FB9779BFECF8EB18F778EB98A
:1000E000089598B39F7E98BB98B39E7F98BB0E945B
:1000F0006A0088B3806188BB089598B39F7E98BBDF
:1001000098B3916098BB0E946A0088B38E7F88BBC9
:1001100088B3806188BB089587B3836187BB88B348
:10012000826188BB88B38E7F88BB000088B38F7ED6
:1001300088BB88B38D7F88BB87EA91E60197F1F78A
:1001400000C0000088B3826088BB88B3806188BB30
:100150000E94640081E20E94710080EC0E947100A4
:1001600087E00E94710084E10E94710080E20E9499
:1001700071008CE00E9471000895CF93DF93C0E07E
:10018000D0E004C080E00E947D002196C83F81E05D
:10019000D807C4F3DF91CF9108950F931F93CF93A6
:1001A000DF9301978930910508F051C1865D9F4F1B
:1001B000FC010C94260480E80E94710080E40E94F7
:1001C0007100C0E0D0E000E010E019C0C931D105F5
:1001D00041F480E80E94710081E40E9471000BE309
:1001E00010E0F801EC0FFD1FE756FF4F9081FE0174
:1001F000E959FF4F8081892B0E947D002196C233EF
:10020000D10524F324C18CE90E94710080E40E948E
:100210007100CCE1D0E000E010E019C0C533D10599
:1002200041F48CE90E94710081E40E9471000BE3AB
:1002300010E0F801EC0FFD1FE756FF4F9081FE0123
:10024000E55BFF4F8081892B0E947D002196CE3493
:10025000D10524F3FCC08AEB0E94710080E40E9467
:100260007100CAE3D0E000E010E019C0C335D10549
:1002700041F48AEB0E94710081E40E9471000BE35B
:1002800010E0F801EC0FFD1FE756FF4F9081FE01D3
:10029000E35DFF4F8081892B0E947D002196CC3643
:1002A000D10524F3D4C080E80E94710082E40E944A
:1002B0007100C0E0D0E010C0C931D10531F480E850
:1002C0000E94710083E40E947100FE01E959FF4F12
:1002D00080810E947D002196C233D1056CF3B7C0A6
:1002E0008CE90E94710082E40E947100C0E0D0E0BD
:1002F00010C0C931D10531F48CE90E94710083E44A
:100300000E947100FE01E959FF4F80810E947D002B
:100310002196C233D1056CF39AC08AEB0E9471001A
:1003200082E40E947100C0E0D0E010C0C931D10564
:1003300031F48AEB0E94710083E40E947100FE0197
:10034000E959FF4F80810E947D002196C233D1057B
:100350006CF37DC080E80E94710084E40E9471000B
:10036000C0E5D1E000E010E01AC0C936F1E0DF07D7
:1003700041F480E80E94710085E40E9471000BE363
:1003800010E0F801EC0FFD1FE756FF4F9081FE01D2
:10039000E95EF0408081892B0E947D002196C23861
:1003A00081E0D80714F353C08CE90E94710084E403
:1003B0000E947100CCE6D1E000E010E01AC0C53820
:1003C000E1E0DE0741F48CE90E94710085E40E94BF
:1003D00071000BE310E0F801EC0FFD1FE756FF4F33
:1003E0009081FE01E550F1408081892B0E947D00C3
:1003F0002196CE39F1E0DF0714F329C08AEB0E9481
:10040000710084E40E947100C8E8D1E000E010E0CF
:100410001AC0C13A81E0D80741F48AEB0E9471000A
:1004200085E40E9471000BE310E0F801EC0FFD1F62
:10043000E756FF4F9081FE01E152F1408081892B08
:100440000E947D002196CA3BE1E0DE0714F3DF91B4
:10045000CF911F910F910895CF93DF93019789302A
:10046000910508F0B8C08D5C9F4FFC010C942604E8
:100470008AE80E94710080E40E947100C0E0D0E030
:1004800007C0FE01EC59FF4F80810E947D0021963C
:10049000C330D105B4F39FC088EA0E94710080E4A4
:1004A0000E947100C0E0D0E007C0FE01EC59FF4F90
:1004B00080810E947D002196C330D105B4F38BC0AA
:1004C00086EC0E94710080E40E947100C0E0D0E0E0
:1004D00007C0FE01EC59FF4F80810E947D002196EC
:1004E000C330D105B4F377C08AE80E94710083E479
:1004F0000E947100C0E0D0E007C0FE01EC59FF4F40
:1005000080810E947D002196C330D105B4F363C081
:1005100088EA0E94710083E40E947100C0E0D0E08C
:1005200007C0FE01EC59FF4F80810E947D0021969B
:10053000C330D105B4F34FC086EC0E94710083E450
:100540000E947100C0E0D0E007C0FE01EC59FF4FEF
:1005500080810E947D002196C330D105B4F33BC059
:100560008AE80E94710085E40E947100C0E0D0E03A
:1005700007C0FE01EC59FF4F80810E947D0021964B
:10058000C330D105B4F327C088EA0E94710085E426
:100590000E947100C0E0D0E007C0FE01EC59FF4F9F
:1005A00080810E947D002196C330D105B4F313C031
:1005B00086EC0E94710085E40E947100C0E0D0E0EA
:1005C00007C0FE01EC59FF4F80810E947D002196FB
:1005D000C330D105B4F3DF91CF910895CF93DF936A
:1005E00001978930910508F09DC0845C9F4FFC0104
:1005F0000C9426048AE80E94710080E40E94710035
:10060000C0E0D0E004C080E00E947D002196C330AD
:10061000D105CCF387C088EA0E94710080E40E9473
:100620007100C0E0D0E004C080E00E947D0021960F
:10063000C330D105CCF376C086EC0E94710080E413
:100640000E947100C0E0D0E004C080E00E947D0004
:100650002196C330D105CCF365C08AE80E947100B1
:1006600083E40E947100C0E0D0E004C080E00E94FA
:100670007D002196C330D105CCF354C088EA0E9496
:10068000710083E40E947100C0E0D0E004C080E00B
:100690000E947D002196C330D105CCF343C086EC87
:1006A0000E94710083E40E947100C0E0D0E004C0A9
:1006B00080E00E947D002196C330D105CCF332C08A
:1006C0008AE80E94710085E40E947100C0E0D0E0D9
:1006D00004C080E00E947D002196C330D105CCF398
:1006E00021C088EA0E94710085E40E947100C0E088
:1006F000D0E004C080E00E947D002196C330D10587
:10070000CCF310C086EC0E94710085E40E94710059
:10071000C0E0D0E004C080E00E947D002196C3309C
:10072000D105CCF3DF91CF910895CF93DF9388B3B8
:100730008F7E88BB88B3816088BBC0E0D0E007C0F3
:10074000FE01E756FF4F80810E946A002196C83F54
:1007500081E0D807ACF388B38E7F88BB88B3806113
:1007600088BBDF91CF9108951ABA0E948C000E9435
:10077000BD000E94950380916200909163000E94E9
:100780002C0289B3823009F042C0E0E6F0E08281B9
:100790009381019693838283099731F481E090E0FD
:1007A000909363008093620080916000909161005B
:1007B0000E94EE020DC00196909363008093620048
:1007C000099731F481E090E0909363008093620098
:1007D0008091620090916300FC013197EE0FFF1F42
:1007E000EE56FD4F20813181232B29F70E942C02E8
:1007F000E0E6F0E082819381918380832FE38DE0B6
:1008000093E0215080409040E1F700C0000089B3A0
:10081000813009F0B6CFC0E6D0E08A819B810E948A
:10082000CD00EA81FB813197EE0FFF1FEE56FD4FA1
:1008300081E090E0918380832FED82E292E021506D
:1008400080409040E1F700C000009BCFEE0FFF1FFB
:0C0850000590F491E02D0994F894FFCF7E
:10085C0001000100BCA4BC00020204080810101026
:10086C00202040C0804020201010100808040202F4
:10087C00001010080804040202010101000001012B
:10088C00010202040408081010000000000000001F
:10089C00000000000000000000000000000000004C
:1008AC0000000000FE00000000000000000000003E
:1008BC00000000000000000000000000000000002C
:1008CC000000FE000000000000000000000000001E
:1008DC00000000000000000000000000008080808C
:1008EC0080808080808080808080808080808080FC
:1008FC008080808080808080FF808080808080806D
:10090C0080808080808080808080808080808080DB
:10091C00808080808080FF8080808080808080804C
:10092C0080808080808080808080808080808080BB
:10093C00800000000000000000000000000000002B
:10094C00000000000000000000000000FF0000009C
:10095C00000000000000000000000000000000008B
:10096C0000000000000000000000FF00000000007C
:10097C00000000000000000000000000000000006B
:10098C00000000000000000000000000000000005B
:10099C00000000000000000000000000000000004B
:1009AC00FF0000000000000000000000000000003C
:1009BC000000000000000000000000000000FF002C
:1009CC00000000000000000000000000000000001B
:1009DC0000000000000000000002020202020202FD
:1009EC0002020202020202020202020202020202DB
:1009FC0002020202FF0202020202020202020202CE
:100A0C0002020202020202020202020202020202BA
:100A1C000202FF02020202020202020202020202AD
:100A2C0002020202020202020202020202000000A0
:100A3C0000000000000000000000000000000000AA
:100A4C000000000000000000FF000000000000009B
:100A5C00000000000000000000000000000000008A
:100A6C00000000000000FF0000000000000000007B
:100A7C00000000000000000000000000000000006A
:020A8C00000068
:00000001FF
